{
  "address": "0xA639C1421DA1CC2EADD6E7151550bebC9dBf7A72",
  "abi": [
    {
      "inputs": [
        {
          "internalType": "uint256",
          "name": "_bookingReferenceTime",
          "type": "uint256"
        },
        {
          "internalType": "uint256",
          "name": "_bookingIntervalSize",
          "type": "uint256"
        }
      ],
      "stateMutability": "nonpayable",
      "type": "constructor"
    },
    {
      "anonymous": false,
      "inputs": [
        {
          "indexed": false,
          "internalType": "uint256",
          "name": "id",
          "type": "uint256"
        }
      ],
      "name": "BookingCreated",
      "type": "event"
    },
    {
      "anonymous": false,
      "inputs": [
        {
          "indexed": true,
          "internalType": "address",
          "name": "previousOwner",
          "type": "address"
        },
        {
          "indexed": true,
          "internalType": "address",
          "name": "newOwner",
          "type": "address"
        }
      ],
      "name": "OwnershipTransferred",
      "type": "event"
    },
    {
      "anonymous": false,
      "inputs": [
        {
          "indexed": false,
          "internalType": "uint256",
          "name": "id",
          "type": "uint256"
        }
      ],
      "name": "SlotCreated",
      "type": "event"
    },
    {
      "inputs": [
        {
          "internalType": "uint256",
          "name": "slotId",
          "type": "uint256"
        },
        {
          "internalType": "address",
          "name": "nftContract",
          "type": "address"
        },
        {
          "internalType": "uint256",
          "name": "tokenId",
          "type": "uint256"
        },
        {
          "internalType": "uint256",
          "name": "startOffset",
          "type": "uint256"
        },
        {
          "internalType": "uint256",
          "name": "endOffset",
          "type": "uint256"
        }
      ],
      "name": "book",
      "outputs": [],
      "stateMutability": "payable",
      "type": "function"
    },
    {
      "inputs": [],
      "name": "bookingIntervalSize",
      "outputs": [
        {
          "internalType": "uint256",
          "name": "",
          "type": "uint256"
        }
      ],
      "stateMutability": "view",
      "type": "function"
    },
    {
      "inputs": [
        {
          "internalType": "uint256",
          "name": "",
          "type": "uint256"
        },
        {
          "internalType": "uint256",
          "name": "",
          "type": "uint256"
        }
      ],
      "name": "bookingLookups",
      "outputs": [
        {
          "internalType": "uint256",
          "name": "",
          "type": "uint256"
        }
      ],
      "stateMutability": "view",
      "type": "function"
    },
    {
      "inputs": [],
      "name": "bookingReferenceTime",
      "outputs": [
        {
          "internalType": "uint256",
          "name": "",
          "type": "uint256"
        }
      ],
      "stateMutability": "view",
      "type": "function"
    },
    {
      "inputs": [
        {
          "internalType": "uint256",
          "name": "",
          "type": "uint256"
        }
      ],
      "name": "bookings",
      "outputs": [
        {
          "internalType": "uint256",
          "name": "id",
          "type": "uint256"
        },
        {
          "internalType": "uint256",
          "name": "slot",
          "type": "uint256"
        },
        {
          "internalType": "address",
          "name": "nftContract",
          "type": "address"
        },
        {
          "internalType": "uint256",
          "name": "tokenId",
          "type": "uint256"
        },
        {
          "internalType": "uint256",
          "name": "startOffset",
          "type": "uint256"
        },
        {
          "internalType": "uint256",
          "name": "endOffset",
          "type": "uint256"
        },
        {
          "internalType": "address",
          "name": "booker",
          "type": "address"
        }
      ],
      "stateMutability": "view",
      "type": "function"
    },
    {
      "inputs": [
        {
          "internalType": "uint256",
          "name": "pricePerInterval",
          "type": "uint256"
        }
      ],
      "name": "createSlot",
      "outputs": [],
      "stateMutability": "nonpayable",
      "type": "function"
    },
    {
      "inputs": [
        {
          "internalType": "uint256",
          "name": "offset",
          "type": "uint256"
        }
      ],
      "name": "getBookingsAtOffset",
      "outputs": [
        {
          "internalType": "bool[]",
          "name": "hasBooking",
          "type": "bool[]"
        },
        {
          "internalType": "uint256[]",
          "name": "bookingIds",
          "type": "uint256[]"
        },
        {
          "internalType": "address[]",
          "name": "nftContracts",
          "type": "address[]"
        },
        {
          "internalType": "uint256[]",
          "name": "tokenIds",
          "type": "uint256[]"
        },
        {
          "internalType": "address[]",
          "name": "bookers",
          "type": "address[]"
        }
      ],
      "stateMutability": "view",
      "type": "function"
    },
    {
      "inputs": [
        {
          "internalType": "uint256",
          "name": "slotId",
          "type": "uint256"
        },
        {
          "internalType": "uint256",
          "name": "startOffset",
          "type": "uint256"
        },
        {
          "internalType": "uint256",
          "name": "endOffset",
          "type": "uint256"
        }
      ],
      "name": "isBooked",
      "outputs": [
        {
          "internalType": "bool[]",
          "name": "booked",
          "type": "bool[]"
        }
      ],
      "stateMutability": "view",
      "type": "function"
    },
    {
      "inputs": [],
      "name": "owner",
      "outputs": [
        {
          "internalType": "address",
          "name": "",
          "type": "address"
        }
      ],
      "stateMutability": "view",
      "type": "function"
    },
    {
      "inputs": [],
      "name": "renounceOwnership",
      "outputs": [],
      "stateMutability": "nonpayable",
      "type": "function"
    },
    {
      "inputs": [
        {
          "internalType": "uint256",
          "name": "",
          "type": "uint256"
        }
      ],
      "name": "slots",
      "outputs": [
        {
          "internalType": "uint256",
          "name": "id",
          "type": "uint256"
        },
        {
          "internalType": "uint256",
          "name": "pricePerInterval",
          "type": "uint256"
        },
        {
          "internalType": "bool",
          "name": "active",
          "type": "bool"
        }
      ],
      "stateMutability": "view",
      "type": "function"
    },
    {
      "inputs": [
        {
          "internalType": "address",
          "name": "newOwner",
          "type": "address"
        }
      ],
      "name": "transferOwnership",
      "outputs": [],
      "stateMutability": "nonpayable",
      "type": "function"
    },
    {
      "inputs": [
        {
          "internalType": "uint256",
          "name": "slotId",
          "type": "uint256"
        },
        {
          "internalType": "uint256",
          "name": "pricePerInterval",
          "type": "uint256"
        },
        {
          "internalType": "bool",
          "name": "active",
          "type": "bool"
        }
      ],
      "name": "updateSlot",
      "outputs": [],
      "stateMutability": "nonpayable",
      "type": "function"
    },
    {
      "inputs": [],
      "name": "withdraw",
      "outputs": [],
      "stateMutability": "nonpayable",
      "type": "function"
    }
  ],
  "transactionHash": "0x400505cbddebcd622fe2405eb8f3645476058fcc182f48e4f63900a25449c684",
  "args": [
    0,
    3600
  ],
  "numDeployments": 2,
  "solcInputHash": "00ae3caf698b889ad8449f1108ae4cd0",
  "bytecode": "0x60c06040523480156200001157600080fd5b506040516200208e3803806200208e83398181016040528101906200003791906200017b565b620000576200004b6200006f60201b60201c565b6200007760201b60201c565b81608081815250508060a081815250505050620001c2565b600033905090565b60008060009054906101000a900473ffffffffffffffffffffffffffffffffffffffff169050816000806101000a81548173ffffffffffffffffffffffffffffffffffffffff021916908373ffffffffffffffffffffffffffffffffffffffff1602179055508173ffffffffffffffffffffffffffffffffffffffff168173ffffffffffffffffffffffffffffffffffffffff167f8be0079c531659141344cd1fd0a4f28419497f9722a3daafe3b4186f6b6457e060405160405180910390a35050565b600080fd5b6000819050919050565b620001558162000140565b81146200016157600080fd5b50565b60008151905062000175816200014a565b92915050565b600080604083850312156200019557620001946200013b565b5b6000620001a58582860162000164565b9250506020620001b88582860162000164565b9150509250929050565b60805160a051611ea6620001e8600039600061092901526000610f3b0152611ea66000f3fe6080604052600436106100dd5760003560e01c80633f12572a1161007f57806360dfe6461161005957806360dfe646146102bd578063715018a6146102fa5780638da5cb5b14610311578063f2fde38b1461033c576100dd565b80633f12572a146102145780634ee994c1146102515780635363354714610292576100dd565b8063282f52cf116100bb578063282f52cf1461016a5780632892455214610193578063387dd9e9146101be5780633ccfd60b146101fd576100dd565b8063062b300a146100e25780631dab301e146100fe57806322c86d6814610141575b600080fd5b6100fc60048036038101906100f791906113ac565b610365565b005b34801561010a57600080fd5b5061012560048036038101906101209190611427565b61073e565b6040516101389796959493929190611472565b60405180910390f35b34801561014d57600080fd5b5061016860048036038101906101639190611519565b6107d0565b005b34801561017657600080fd5b50610191600480360381019061018c9190611427565b610844565b005b34801561019f57600080fd5b506101a8610927565b6040516101b5919061156c565b60405180910390f35b3480156101ca57600080fd5b506101e560048036038101906101e09190611427565b61094b565b6040516101f493929190611596565b60405180910390f35b34801561020957600080fd5b50610212610992565b005b34801561022057600080fd5b5061023b600480360381019061023691906115cd565b6109e3565b604051610248919061156c565b60405180910390f35b34801561025d57600080fd5b5061027860048036038101906102739190611427565b610a08565b604051610289959493929190611847565b60405180910390f35b34801561029e57600080fd5b506102a7610f39565b6040516102b4919061156c565b60405180910390f35b3480156102c957600080fd5b506102e460048036038101906102df91906118bd565b610f5d565b6040516102f19190611910565b60405180910390f35b34801561030657600080fd5b5061030f6110a0565b005b34801561031d57600080fd5b506103266110b4565b6040516103339190611932565b60405180910390f35b34801561034857600080fd5b50610363600480360381019061035e919061194d565b6110dd565b005b60006001868154811061037b5761037a61197a565b5b906000526020600020906003020160405180606001604052908160008201548152602001600182015481526020016002820160009054906101000a900460ff16151515158152505090508060400151610409576040517f08c379a000000000000000000000000000000000000000000000000000000000815260040161040090611a06565b60405180910390fd5b8282101561044c576040517f08c379a000000000000000000000000000000000000000000000000000000000815260040161044390611a72565b60405180910390fd5b60006001848461045c9190611ac1565b6104669190611af5565b82602001516104759190611b29565b9050803410156104ba576040517f08c379a00000000000000000000000000000000000000000000000000000000081526004016104b190611bb7565b60405180910390fd5b60008490505b838111610542576000600560008a81526020019081526020016000206000838152602001908152602001600020541461052e576040517f08c379a000000000000000000000000000000000000000000000000000000000815260040161052590611c49565b60405180910390fd5b60018161053b9190611af5565b90506104c0565b5060046040518060e0016040528060035481526020018981526020018873ffffffffffffffffffffffffffffffffffffffff1681526020018781526020018681526020018581526020013373ffffffffffffffffffffffffffffffffffffffff168152509080600181540180825580915050600190039060005260206000209060070201600090919091909150600082015181600001556020820151816001015560408201518160020160006101000a81548173ffffffffffffffffffffffffffffffffffffffff021916908373ffffffffffffffffffffffffffffffffffffffff160217905550606082015181600301556080820151816004015560a0820151816005015560c08201518160060160006101000a81548173ffffffffffffffffffffffffffffffffffffffff021916908373ffffffffffffffffffffffffffffffffffffffff160217905550505060006003549050600360008154809291906106ab90611c69565b919050555060008590505b8481116106fc57600354600560008b81526020019081526020016000206000838152602001908152602001600020819055506001816106f59190611af5565b90506106b6565b507feff0c44eb012c0a3b8af8da61b04c9c7ee828fe9c5746869998c63319a21067c8160405161072c919061156c565b60405180910390a15050505050505050565b6004818154811061074e57600080fd5b90600052602060002090600702016000915090508060000154908060010154908060020160009054906101000a900473ffffffffffffffffffffffffffffffffffffffff16908060030154908060040154908060050154908060060160009054906101000a900473ffffffffffffffffffffffffffffffffffffffff16905087565b6107d8611160565b81600184815481106107ed576107ec61197a565b5b90600052602060002090600302016001018190555080600184815481106108175761081661197a565b5b906000526020600020906003020160020160006101000a81548160ff021916908315150217905550505050565b61084c611160565b600160405180606001604052806002548152602001838152602001600115158152509080600181540180825580915050600190039060005260206000209060030201600090919091909150600082015181600001556020820151816001015560408201518160020160006101000a81548160ff021916908315150217905550505060006002549050600260008154809291906108e790611c69565b91905055507f24120ff8356cf012c47820e7f74536b15594250f3add1b42d58448250bcfdd508160405161091b919061156c565b60405180910390a15050565b7f000000000000000000000000000000000000000000000000000000000000000081565b6001818154811061095b57600080fd5b90600052602060002090600302016000915090508060000154908060010154908060020160009054906101000a900460ff16905083565b61099a611160565b3373ffffffffffffffffffffffffffffffffffffffff166108fc479081150290604051600060405180830381858888f193505050501580156109e0573d6000803e3d6000fd5b50565b6005602052816000526040600020602052806000526040600020600091509150505481565b60608060608060606000610a1a6112aa565b60025467ffffffffffffffff811115610a3657610a35611cb1565b5b604051908082528060200260200182016040528015610a645781602001602082028036833780820191505090505b50965060025467ffffffffffffffff811115610a8357610a82611cb1565b5b604051908082528060200260200182016040528015610ab15781602001602082028036833780820191505090505b50955060025467ffffffffffffffff811115610ad057610acf611cb1565b5b604051908082528060200260200182016040528015610afe5781602001602082028036833780820191505090505b50945060025467ffffffffffffffff811115610b1d57610b1c611cb1565b5b604051908082528060200260200182016040528015610b4b5781602001602082028036833780820191505090505b50935060025467ffffffffffffffff811115610b6a57610b69611cb1565b5b604051908082528060200260200182016040528015610b985781602001602082028036833780820191505090505b50925060005b600254811015610f2d576005600082815260200190815260200160002060008a81526020019081526020016000205492506000831115610e11576004600184610be79190611ac1565b81548110610bf857610bf761197a565b5b90600052602060002090600702016040518060e001604052908160008201548152602001600182015481526020016002820160009054906101000a900473ffffffffffffffffffffffffffffffffffffffff1673ffffffffffffffffffffffffffffffffffffffff1673ffffffffffffffffffffffffffffffffffffffff1681526020016003820154815260200160048201548152602001600582015481526020016006820160009054906101000a900473ffffffffffffffffffffffffffffffffffffffff1673ffffffffffffffffffffffffffffffffffffffff1673ffffffffffffffffffffffffffffffffffffffff16815250509150600183610cfe9190611ac1565b878281518110610d1157610d1061197a565b5b6020026020010181815250506001888281518110610d3257610d3161197a565b5b6020026020010190151590811515815250508160400151868281518110610d5c57610d5b61197a565b5b602002602001019073ffffffffffffffffffffffffffffffffffffffff16908173ffffffffffffffffffffffffffffffffffffffff16815250508160600151858281518110610dae57610dad61197a565b5b6020026020010181815250508160c00151848281518110610dd257610dd161197a565b5b602002602001019073ffffffffffffffffffffffffffffffffffffffff16908173ffffffffffffffffffffffffffffffffffffffff1681525050610f19565b6000878281518110610e2657610e2561197a565b5b6020026020010181815250506000888281518110610e4757610e4661197a565b5b6020026020010190151590811515815250506000868281518110610e6e57610e6d61197a565b5b602002602001019073ffffffffffffffffffffffffffffffffffffffff16908173ffffffffffffffffffffffffffffffffffffffff16815250506000858281518110610ebd57610ebc61197a565b5b6020026020010181815250506000848281518110610ede57610edd61197a565b5b602002602001019073ffffffffffffffffffffffffffffffffffffffff16908173ffffffffffffffffffffffffffffffffffffffff16815250505b600181610f269190611af5565b9050610b9e565b50505091939590929450565b7f000000000000000000000000000000000000000000000000000000000000000081565b606082821015610fa2576040517f08c379a0000000000000000000000000000000000000000000000000000000008152600401610f9990611d52565b60405180910390fd5b60018383610fb09190611ac1565b610fba9190611af5565b67ffffffffffffffff811115610fd357610fd2611cb1565b5b6040519080825280602002602001820160405280156110015781602001602082028036833780820191505090505b5090506000600184846110149190611ac1565b61101e9190611af5565b905060005b81811015611097576000600560008881526020019081526020016000206000878461104e9190611af5565b815260200190815260200160002054118382815181106110715761107061197a565b5b6020026020010190151590811515815250506001816110909190611af5565b9050611023565b50509392505050565b6110a8611160565b6110b260006111de565b565b60008060009054906101000a900473ffffffffffffffffffffffffffffffffffffffff16905090565b6110e5611160565b600073ffffffffffffffffffffffffffffffffffffffff168173ffffffffffffffffffffffffffffffffffffffff1603611154576040517f08c379a000000000000000000000000000000000000000000000000000000000815260040161114b90611de4565b60405180910390fd5b61115d816111de565b50565b6111686112a2565b73ffffffffffffffffffffffffffffffffffffffff166111866110b4565b73ffffffffffffffffffffffffffffffffffffffff16146111dc576040517f08c379a00000000000000000000000000000000000000000000000000000000081526004016111d390611e50565b60405180910390fd5b565b60008060009054906101000a900473ffffffffffffffffffffffffffffffffffffffff169050816000806101000a81548173ffffffffffffffffffffffffffffffffffffffff021916908373ffffffffffffffffffffffffffffffffffffffff1602179055508173ffffffffffffffffffffffffffffffffffffffff168173ffffffffffffffffffffffffffffffffffffffff167f8be0079c531659141344cd1fd0a4f28419497f9722a3daafe3b4186f6b6457e060405160405180910390a35050565b600033905090565b6040518060e001604052806000815260200160008152602001600073ffffffffffffffffffffffffffffffffffffffff168152602001600081526020016000815260200160008152602001600073ffffffffffffffffffffffffffffffffffffffff1681525090565b600080fd5b6000819050919050565b61132b81611318565b811461133657600080fd5b50565b60008135905061134881611322565b92915050565b600073ffffffffffffffffffffffffffffffffffffffff82169050919050565b60006113798261134e565b9050919050565b6113898161136e565b811461139457600080fd5b50565b6000813590506113a681611380565b92915050565b600080600080600060a086880312156113c8576113c7611313565b5b60006113d688828901611339565b95505060206113e788828901611397565b94505060406113f888828901611339565b935050606061140988828901611339565b925050608061141a88828901611339565b9150509295509295909350565b60006020828403121561143d5761143c611313565b5b600061144b84828501611339565b91505092915050565b61145d81611318565b82525050565b61146c8161136e565b82525050565b600060e082019050611487600083018a611454565b6114946020830189611454565b6114a16040830188611463565b6114ae6060830187611454565b6114bb6080830186611454565b6114c860a0830185611454565b6114d560c0830184611463565b98975050505050505050565b60008115159050919050565b6114f6816114e1565b811461150157600080fd5b50565b600081359050611513816114ed565b92915050565b60008060006060848603121561153257611531611313565b5b600061154086828701611339565b935050602061155186828701611339565b925050604061156286828701611504565b9150509250925092565b60006020820190506115816000830184611454565b92915050565b611590816114e1565b82525050565b60006060820190506115ab6000830186611454565b6115b86020830185611454565b6115c56040830184611587565b949350505050565b600080604083850312156115e4576115e3611313565b5b60006115f285828601611339565b925050602061160385828601611339565b9150509250929050565b600081519050919050565b600082825260208201905092915050565b6000819050602082019050919050565b611642816114e1565b82525050565b60006116548383611639565b60208301905092915050565b6000602082019050919050565b60006116788261160d565b6116828185611618565b935061168d83611629565b8060005b838110156116be5781516116a58882611648565b97506116b083611660565b925050600181019050611691565b5085935050505092915050565b600081519050919050565b600082825260208201905092915050565b6000819050602082019050919050565b61170081611318565b82525050565b600061171283836116f7565b60208301905092915050565b6000602082019050919050565b6000611736826116cb565b61174081856116d6565b935061174b836116e7565b8060005b8381101561177c5781516117638882611706565b975061176e8361171e565b92505060018101905061174f565b5085935050505092915050565b600081519050919050565b600082825260208201905092915050565b6000819050602082019050919050565b6117be8161136e565b82525050565b60006117d083836117b5565b60208301905092915050565b6000602082019050919050565b60006117f482611789565b6117fe8185611794565b9350611809836117a5565b8060005b8381101561183a57815161182188826117c4565b975061182c836117dc565b92505060018101905061180d565b5085935050505092915050565b600060a0820190508181036000830152611861818861166d565b90508181036020830152611875818761172b565b9050818103604083015261188981866117e9565b9050818103606083015261189d818561172b565b905081810360808301526118b181846117e9565b90509695505050505050565b6000806000606084860312156118d6576118d5611313565b5b60006118e486828701611339565b93505060206118f586828701611339565b925050604061190686828701611339565b9150509250925092565b6000602082019050818103600083015261192a818461166d565b905092915050565b60006020820190506119476000830184611463565b92915050565b60006020828403121561196357611962611313565b5b600061197184828501611397565b91505092915050565b7f4e487b7100000000000000000000000000000000000000000000000000000000600052603260045260246000fd5b600082825260208201905092915050565b7f52656e74616c3a20536c6f74206973206e6f7420616374697665000000000000600082015250565b60006119f0601a836119a9565b91506119fb826119ba565b602082019050919050565b60006020820190508181036000830152611a1f816119e3565b9050919050565b7f52656e74616c3a20496e76616c696420626f6f6b696e672072616e6765000000600082015250565b6000611a5c601d836119a9565b9150611a6782611a26565b602082019050919050565b60006020820190508181036000830152611a8b81611a4f565b9050919050565b7f4e487b7100000000000000000000000000000000000000000000000000000000600052601160045260246000fd5b6000611acc82611318565b9150611ad783611318565b9250828203905081811115611aef57611aee611a92565b5b92915050565b6000611b0082611318565b9150611b0b83611318565b9250828201905080821115611b2357611b22611a92565b5b92915050565b6000611b3482611318565b9150611b3f83611318565b9250828202611b4d81611318565b91508282048414831517611b6457611b63611a92565b5b5092915050565b7f52656e74616c3a205061796d656e74206e6f742073756666696369656e740000600082015250565b6000611ba1601e836119a9565b9150611bac82611b6b565b602082019050919050565b60006020820190508181036000830152611bd081611b94565b9050919050565b7f52656e74616c3a20556e617661696c61626c6520746f20626f6f6b20696e207460008201527f6861742072616e67650000000000000000000000000000000000000000000000602082015250565b6000611c336029836119a9565b9150611c3e82611bd7565b604082019050919050565b60006020820190508181036000830152611c6281611c26565b9050919050565b6000611c7482611318565b91507fffffffffffffffffffffffffffffffffffffffffffffffffffffffffffffffff8203611ca657611ca5611a92565b5b600182019050919050565b7f4e487b7100000000000000000000000000000000000000000000000000000000600052604160045260246000fd5b7f52656e74616c3a20656e644f66667365742063616e6e6f74206265206c65737360008201527f207468616e2073746172744f6666736574000000000000000000000000000000602082015250565b6000611d3c6031836119a9565b9150611d4782611ce0565b604082019050919050565b60006020820190508181036000830152611d6b81611d2f565b9050919050565b7f4f776e61626c653a206e6577206f776e657220697320746865207a65726f206160008201527f6464726573730000000000000000000000000000000000000000000000000000602082015250565b6000611dce6026836119a9565b9150611dd982611d72565b604082019050919050565b60006020820190508181036000830152611dfd81611dc1565b9050919050565b7f4f776e61626c653a2063616c6c6572206973206e6f7420746865206f776e6572600082015250565b6000611e3a6020836119a9565b9150611e4582611e04565b602082019050919050565b60006020820190508181036000830152611e6981611e2d565b905091905056fea2646970667358221220497add0f986763bb35b960707db07d1d05467d2f16f92d96938b4cc7f9685c7064736f6c63430008120033",
  "devdoc": {
    "kind": "dev",
    "methods": {
      "owner()": {
        "details": "Returns the address of the current owner."
      },
      "renounceOwnership()": {
        "details": "Leaves the contract without owner. It will not be possible to call `onlyOwner` functions. Can only be called by the current owner. NOTE: Renouncing ownership will leave the contract without an owner, thereby disabling any functionality that is only available to the owner."
      },
      "transferOwnership(address)": {
        "details": "Transfers ownership of the contract to a new account (`newOwner`). Can only be called by the current owner."
      }
    },
    "version": 1
  },
  "userdoc": {
    "kind": "user",
    "methods": {},
    "version": 1
  },
  "storageLayout": {
    "storage": [
      {
        "astId": 7,
        "contract": "contracts/Slot.sol:Rental",
        "label": "_owner",
        "offset": 0,
        "slot": "0",
        "type": "t_address"
      },
      {
        "astId": 159,
        "contract": "contracts/Slot.sol:Rental",
        "label": "slots",
        "offset": 0,
        "slot": "1",
        "type": "t_array(t_struct(Slot)155_storage)dyn_storage"
      },
      {
        "astId": 161,
        "contract": "contracts/Slot.sol:Rental",
        "label": "lastSlotId",
        "offset": 0,
        "slot": "2",
        "type": "t_uint256"
      },
      {
        "astId": 178,
        "contract": "contracts/Slot.sol:Rental",
        "label": "lastBookingId",
        "offset": 0,
        "slot": "3",
        "type": "t_uint256"
      },
      {
        "astId": 182,
        "contract": "contracts/Slot.sol:Rental",
        "label": "bookings",
        "offset": 0,
        "slot": "4",
        "type": "t_array(t_struct(Booking)176_storage)dyn_storage"
      },
      {
        "astId": 192,
        "contract": "contracts/Slot.sol:Rental",
        "label": "bookingLookups",
        "offset": 0,
        "slot": "5",
        "type": "t_mapping(t_uint256,t_mapping(t_uint256,t_uint256))"
      }
    ],
    "types": {
      "t_address": {
        "encoding": "inplace",
        "label": "address",
        "numberOfBytes": "20"
      },
      "t_array(t_struct(Booking)176_storage)dyn_storage": {
        "base": "t_struct(Booking)176_storage",
        "encoding": "dynamic_array",
        "label": "struct Rental.Booking[]",
        "numberOfBytes": "32"
      },
      "t_array(t_struct(Slot)155_storage)dyn_storage": {
        "base": "t_struct(Slot)155_storage",
        "encoding": "dynamic_array",
        "label": "struct Rental.Slot[]",
        "numberOfBytes": "32"
      },
      "t_bool": {
        "encoding": "inplace",
        "label": "bool",
        "numberOfBytes": "1"
      },
      "t_mapping(t_uint256,t_mapping(t_uint256,t_uint256))": {
        "encoding": "mapping",
        "key": "t_uint256",
        "label": "mapping(uint256 => mapping(uint256 => uint256))",
        "numberOfBytes": "32",
        "value": "t_mapping(t_uint256,t_uint256)"
      },
      "t_mapping(t_uint256,t_uint256)": {
        "encoding": "mapping",
        "key": "t_uint256",
        "label": "mapping(uint256 => uint256)",
        "numberOfBytes": "32",
        "value": "t_uint256"
      },
      "t_struct(Booking)176_storage": {
        "encoding": "inplace",
        "label": "struct Rental.Booking",
        "members": [
          {
            "astId": 163,
            "contract": "contracts/Slot.sol:Rental",
            "label": "id",
            "offset": 0,
            "slot": "0",
            "type": "t_uint256"
          },
          {
            "astId": 165,
            "contract": "contracts/Slot.sol:Rental",
            "label": "slot",
            "offset": 0,
            "slot": "1",
            "type": "t_uint256"
          },
          {
            "astId": 167,
            "contract": "contracts/Slot.sol:Rental",
            "label": "nftContract",
            "offset": 0,
            "slot": "2",
            "type": "t_address"
          },
          {
            "astId": 169,
            "contract": "contracts/Slot.sol:Rental",
            "label": "tokenId",
            "offset": 0,
            "slot": "3",
            "type": "t_uint256"
          },
          {
            "astId": 171,
            "contract": "contracts/Slot.sol:Rental",
            "label": "startOffset",
            "offset": 0,
            "slot": "4",
            "type": "t_uint256"
          },
          {
            "astId": 173,
            "contract": "contracts/Slot.sol:Rental",
            "label": "endOffset",
            "offset": 0,
            "slot": "5",
            "type": "t_uint256"
          },
          {
            "astId": 175,
            "contract": "contracts/Slot.sol:Rental",
            "label": "booker",
            "offset": 0,
            "slot": "6",
            "type": "t_address"
          }
        ],
        "numberOfBytes": "224"
      },
      "t_struct(Slot)155_storage": {
        "encoding": "inplace",
        "label": "struct Rental.Slot",
        "members": [
          {
            "astId": 150,
            "contract": "contracts/Slot.sol:Rental",
            "label": "id",
            "offset": 0,
            "slot": "0",
            "type": "t_uint256"
          },
          {
            "astId": 152,
            "contract": "contracts/Slot.sol:Rental",
            "label": "pricePerInterval",
            "offset": 0,
            "slot": "1",
            "type": "t_uint256"
          },
          {
            "astId": 154,
            "contract": "contracts/Slot.sol:Rental",
            "label": "active",
            "offset": 0,
            "slot": "2",
            "type": "t_bool"
          }
        ],
        "numberOfBytes": "96"
      },
      "t_uint256": {
        "encoding": "inplace",
        "label": "uint256",
        "numberOfBytes": "32"
      }
    }
  }
}